{
	"data": {
		"bytecode": {
			"linkReferences": {},
			"object": "60806040523480156200001157600080fd5b5060405162000e5c38038062000e5c83398181016040528101906200003791906200021d565b73f39fd6e51aad88f6f4ce6ab8827279cfffb9226673ffffffffffffffffffffffffffffffffffffffff168173ffffffffffffffffffffffffffffffffffffffff161415620000bd576040517f08c379a0000000000000000000000000000000000000000000000000000000008152600401620000b490620002a4565b60405180910390fd5b8073ffffffffffffffffffffffffffffffffffffffff166301ffc9a77fb0202a11000000000000000000000000000000000000000000000000000000006040518263ffffffff1660e01b815260040162000118919062000287565b60206040518083038186803b1580156200013157600080fd5b505afa15801562000146573d6000803e3d6000fd5b505050506040513d601f19601f820116820180604052508101906200016c9190620001eb565b6200017657600080fd5b806000806101000a81548173ffffffffffffffffffffffffffffffffffffffff021916908373ffffffffffffffffffffffffffffffffffffffff16021790555050620003df565b600081519050620001ce81620003ab565b92915050565b600081519050620001e581620003c5565b92915050565b60006020828403121562000204576200020362000357565b5b60006200021484828501620001bd565b91505092915050565b60006020828403121562000236576200023562000357565b5b60006200024684828501620001d4565b91505092915050565b6200025a81620002f7565b82525050565b60006200026f602d83620002c6565b91506200027c826200035c565b604082019050919050565b60006020820190506200029e60008301846200024f565b92915050565b60006020820190508181036000830152620002bf8162000260565b9050919050565b600082825260208201905092915050565b6000620002e48262000337565b9050919050565b60008115159050919050565b60007fffffffff0000000000000000000000000000000000000000000000000000000082169050919050565b60006200033082620002d7565b9050919050565b600073ffffffffffffffffffffffffffffffffffffffff82169050919050565b600080fd5b7f4552433133363350617961626c653a206163636570746564546f6b656e20697360008201527f207a65726f206164647265737300000000000000000000000000000000000000602082015250565b620003b681620002eb565b8114620003c257600080fd5b50565b620003d08162000323565b8114620003dc57600080fd5b50565b610a6d80620003ef6000396000f3fe608060405234801561001057600080fd5b506004361061004c5760003560e01c806301ffc9a714610051578063451c3d80146100815780637b04a2d01461009f57806388a7ca5c146100cf575b600080fd5b61006b60048036038101906100669190610649565b6100ff565b604051610078919061070e565b60405180910390f35b6100896101e1565b6040516100969190610744565b60405180910390f35b6100b960048036038101906100b491906105da565b61020a565b6040516100c69190610729565b60405180910390f35b6100e960048036038101906100e49190610557565b61030e565b6040516100f69190610729565b60405180910390f35b60007f88a7ca5c000000000000000000000000000000000000000000000000000000007bffffffffffffffffffffffffffffffffffffffffffffffffffffffff1916827bffffffffffffffffffffffffffffffffffffffffffffffffffffffff191614806101ca57507f7b04a2d0000000000000000000000000000000000000000000000000000000007bffffffffffffffffffffffffffffffffffffffffffffffffffffffff1916827bffffffffffffffffffffffffffffffffffffffffffffffffffffffff1916145b806101da57506101d98261042b565b5b9050919050565b60008060009054906101000a900473ffffffffffffffffffffffffffffffffffffffff16905090565b60008060009054906101000a900473ffffffffffffffffffffffffffffffffffffffff1673ffffffffffffffffffffffffffffffffffffffff1661024c610495565b73ffffffffffffffffffffffffffffffffffffffff16146102a2576040517f08c379a00000000000000000000000000000000000000000000000000000000081526004016102999061075f565b60405180910390fd5b8373ffffffffffffffffffffffffffffffffffffffff167ffc47604465ac19edea172256bab2469184c3a6770701541635cf84241c2f24b484846040516102ea92919061077f565b60405180910390a26102fd84848461049d565b637b04a2d060e01b90509392505050565b60008060009054906101000a900473ffffffffffffffffffffffffffffffffffffffff1673ffffffffffffffffffffffffffffffffffffffff16610350610495565b73ffffffffffffffffffffffffffffffffffffffff16146103a6576040517f08c379a000000000000000000000000000000000000000000000000000000000815260040161039d9061075f565b60405180910390fd5b8373ffffffffffffffffffffffffffffffffffffffff168573ffffffffffffffffffffffffffffffffffffffff167f01db5e58326b109682dc160b2e51aa7bf7e8d8ccf74bc242a3c5021793789055858560405161040592919061077f565b60405180910390a3610419858585856104a2565b6388a7ca5c60e01b9050949350505050565b60007f01ffc9a7000000000000000000000000000000000000000000000000000000007bffffffffffffffffffffffffffffffffffffffffffffffffffffffff1916827bffffffffffffffffffffffffffffffffffffffffffffffffffffffff1916149050919050565b600033905090565b505050565b50505050565b60006104bb6104b6846107d4565b6107af565b9050828152602081018484840111156104d7576104d6610983565b5b6104e28482856108dc565b509392505050565b6000813590506104f9816109f2565b92915050565b60008135905061050e81610a09565b92915050565b600082601f8301126105295761052861097e565b5b81356105398482602086016104a8565b91505092915050565b60008135905061055181610a20565b92915050565b600080600080608085870312156105715761057061098d565b5b600061057f878288016104ea565b9450506020610590878288016104ea565b93505060406105a187828801610542565b925050606085013567ffffffffffffffff8111156105c2576105c1610988565b5b6105ce87828801610514565b91505092959194509250565b6000806000606084860312156105f3576105f261098d565b5b6000610601868287016104ea565b935050602061061286828701610542565b925050604084013567ffffffffffffffff81111561063357610632610988565b5b61063f86828701610514565b9150509250925092565b60006020828403121561065f5761065e61098d565b5b600061066d848285016104ff565b91505092915050565b61067f81610844565b82525050565b61068e81610850565b82525050565b600061069f82610805565b6106a98185610810565b93506106b98185602086016108eb565b6106c281610992565b840191505092915050565b6106d6816108a6565b82525050565b60006106e9603383610821565b91506106f4826109a3565b604082019050919050565b6107088161089c565b82525050565b60006020820190506107236000830184610676565b92915050565b600060208201905061073e6000830184610685565b92915050565b600060208201905061075960008301846106cd565b92915050565b60006020820190508181036000830152610778816106dc565b9050919050565b600060408201905061079460008301856106ff565b81810360208301526107a68184610694565b90509392505050565b60006107b96107ca565b90506107c5828261091e565b919050565b6000604051905090565b600067ffffffffffffffff8211156107ef576107ee61094f565b5b6107f882610992565b9050602081019050919050565b600081519050919050565b600082825260208201905092915050565b600082825260208201905092915050565b600061083d8261087c565b9050919050565b60008115159050919050565b60007fffffffff0000000000000000000000000000000000000000000000000000000082169050919050565b600073ffffffffffffffffffffffffffffffffffffffff82169050919050565b6000819050919050565b60006108b1826108b8565b9050919050565b60006108c3826108ca565b9050919050565b60006108d58261087c565b9050919050565b82818337600083830152505050565b60005b838110156109095780820151818401526020810190506108ee565b83811115610918576000848401525b50505050565b61092782610992565b810181811067ffffffffffffffff821117156109465761094561094f565b5b80604052505050565b7f4e487b7100000000000000000000000000000000000000000000000000000000600052604160045260246000fd5b600080fd5b600080fd5b600080fd5b600080fd5b6000601f19601f8301169050919050565b7f4552433133363350617961626c653a206163636570746564546f6b656e20697360008201527f206e6f74206d6573736167652073656e64657200000000000000000000000000602082015250565b6109fb81610832565b8114610a0657600080fd5b50565b610a1281610850565b8114610a1d57600080fd5b50565b610a298161089c565b8114610a3457600080fd5b5056fea2646970667358221220284e1c73140240f580815adab8aac6792fc3a585d19966e861c2ad6134b8a7cf64736f6c63430008070033",
			"opcodes": "PUSH1 0x80 PUSH1 0x40 MSTORE CALLVALUE DUP1 ISZERO PUSH3 0x11 JUMPI PUSH1 0x0 DUP1 REVERT JUMPDEST POP PUSH1 0x40 MLOAD PUSH3 0xE5C CODESIZE SUB DUP1 PUSH3 0xE5C DUP4 CODECOPY DUP2 DUP2 ADD PUSH1 0x40 MSTORE DUP2 ADD SWAP1 PUSH3 0x37 SWAP2 SWAP1 PUSH3 0x21D JUMP JUMPDEST PUSH20 0xF39FD6E51AAD88F6F4CE6AB8827279CFFFB92266 PUSH20 0xFFFFFFFFFFFFFFFFFFFFFFFFFFFFFFFFFFFFFFFF AND DUP2 PUSH20 0xFFFFFFFFFFFFFFFFFFFFFFFFFFFFFFFFFFFFFFFF AND EQ ISZERO PUSH3 0xBD JUMPI PUSH1 0x40 MLOAD PUSH32 0x8C379A000000000000000000000000000000000000000000000000000000000 DUP2 MSTORE PUSH1 0x4 ADD PUSH3 0xB4 SWAP1 PUSH3 0x2A4 JUMP JUMPDEST PUSH1 0x40 MLOAD DUP1 SWAP2 SUB SWAP1 REVERT JUMPDEST DUP1 PUSH20 0xFFFFFFFFFFFFFFFFFFFFFFFFFFFFFFFFFFFFFFFF AND PUSH4 0x1FFC9A7 PUSH32 0xB0202A1100000000000000000000000000000000000000000000000000000000 PUSH1 0x40 MLOAD DUP3 PUSH4 0xFFFFFFFF AND PUSH1 0xE0 SHL DUP2 MSTORE PUSH1 0x4 ADD PUSH3 0x118 SWAP2 SWAP1 PUSH3 0x287 JUMP JUMPDEST PUSH1 0x20 PUSH1 0x40 MLOAD DUP1 DUP4 SUB DUP2 DUP7 DUP1 EXTCODESIZE ISZERO DUP1 ISZERO PUSH3 0x131 JUMPI PUSH1 0x0 DUP1 REVERT JUMPDEST POP GAS STATICCALL ISZERO DUP1 ISZERO PUSH3 0x146 JUMPI RETURNDATASIZE PUSH1 0x0 DUP1 RETURNDATACOPY RETURNDATASIZE PUSH1 0x0 REVERT JUMPDEST POP POP POP POP PUSH1 0x40 MLOAD RETURNDATASIZE PUSH1 0x1F NOT PUSH1 0x1F DUP3 ADD AND DUP3 ADD DUP1 PUSH1 0x40 MSTORE POP DUP2 ADD SWAP1 PUSH3 0x16C SWAP2 SWAP1 PUSH3 0x1EB JUMP JUMPDEST PUSH3 0x176 JUMPI PUSH1 0x0 DUP1 REVERT JUMPDEST DUP1 PUSH1 0x0 DUP1 PUSH2 0x100 EXP DUP2 SLOAD DUP2 PUSH20 0xFFFFFFFFFFFFFFFFFFFFFFFFFFFFFFFFFFFFFFFF MUL NOT AND SWAP1 DUP4 PUSH20 0xFFFFFFFFFFFFFFFFFFFFFFFFFFFFFFFFFFFFFFFF AND MUL OR SWAP1 SSTORE POP POP PUSH3 0x3DF JUMP JUMPDEST PUSH1 0x0 DUP2 MLOAD SWAP1 POP PUSH3 0x1CE DUP2 PUSH3 0x3AB JUMP JUMPDEST SWAP3 SWAP2 POP POP JUMP JUMPDEST PUSH1 0x0 DUP2 MLOAD SWAP1 POP PUSH3 0x1E5 DUP2 PUSH3 0x3C5 JUMP JUMPDEST SWAP3 SWAP2 POP POP JUMP JUMPDEST PUSH1 0x0 PUSH1 0x20 DUP3 DUP5 SUB SLT ISZERO PUSH3 0x204 JUMPI PUSH3 0x203 PUSH3 0x357 JUMP JUMPDEST JUMPDEST PUSH1 0x0 PUSH3 0x214 DUP5 DUP3 DUP6 ADD PUSH3 0x1BD JUMP JUMPDEST SWAP2 POP POP SWAP3 SWAP2 POP POP JUMP JUMPDEST PUSH1 0x0 PUSH1 0x20 DUP3 DUP5 SUB SLT ISZERO PUSH3 0x236 JUMPI PUSH3 0x235 PUSH3 0x357 JUMP JUMPDEST JUMPDEST PUSH1 0x0 PUSH3 0x246 DUP5 DUP3 DUP6 ADD PUSH3 0x1D4 JUMP JUMPDEST SWAP2 POP POP SWAP3 SWAP2 POP POP JUMP JUMPDEST PUSH3 0x25A DUP2 PUSH3 0x2F7 JUMP JUMPDEST DUP3 MSTORE POP POP JUMP JUMPDEST PUSH1 0x0 PUSH3 0x26F PUSH1 0x2D DUP4 PUSH3 0x2C6 JUMP JUMPDEST SWAP2 POP PUSH3 0x27C DUP3 PUSH3 0x35C JUMP JUMPDEST PUSH1 0x40 DUP3 ADD SWAP1 POP SWAP2 SWAP1 POP JUMP JUMPDEST PUSH1 0x0 PUSH1 0x20 DUP3 ADD SWAP1 POP PUSH3 0x29E PUSH1 0x0 DUP4 ADD DUP5 PUSH3 0x24F JUMP JUMPDEST SWAP3 SWAP2 POP POP JUMP JUMPDEST PUSH1 0x0 PUSH1 0x20 DUP3 ADD SWAP1 POP DUP2 DUP2 SUB PUSH1 0x0 DUP4 ADD MSTORE PUSH3 0x2BF DUP2 PUSH3 0x260 JUMP JUMPDEST SWAP1 POP SWAP2 SWAP1 POP JUMP JUMPDEST PUSH1 0x0 DUP3 DUP3 MSTORE PUSH1 0x20 DUP3 ADD SWAP1 POP SWAP3 SWAP2 POP POP JUMP JUMPDEST PUSH1 0x0 PUSH3 0x2E4 DUP3 PUSH3 0x337 JUMP JUMPDEST SWAP1 POP SWAP2 SWAP1 POP JUMP JUMPDEST PUSH1 0x0 DUP2 ISZERO ISZERO SWAP1 POP SWAP2 SWAP1 POP JUMP JUMPDEST PUSH1 0x0 PUSH32 0xFFFFFFFF00000000000000000000000000000000000000000000000000000000 DUP3 AND SWAP1 POP SWAP2 SWAP1 POP JUMP JUMPDEST PUSH1 0x0 PUSH3 0x330 DUP3 PUSH3 0x2D7 JUMP JUMPDEST SWAP1 POP SWAP2 SWAP1 POP JUMP JUMPDEST PUSH1 0x0 PUSH20 0xFFFFFFFFFFFFFFFFFFFFFFFFFFFFFFFFFFFFFFFF DUP3 AND SWAP1 POP SWAP2 SWAP1 POP JUMP JUMPDEST PUSH1 0x0 DUP1 REVERT JUMPDEST PUSH32 0x4552433133363350617961626C653A206163636570746564546F6B656E206973 PUSH1 0x0 DUP3 ADD MSTORE PUSH32 0x207A65726F206164647265737300000000000000000000000000000000000000 PUSH1 0x20 DUP3 ADD MSTORE POP JUMP JUMPDEST PUSH3 0x3B6 DUP2 PUSH3 0x2EB JUMP JUMPDEST DUP2 EQ PUSH3 0x3C2 JUMPI PUSH1 0x0 DUP1 REVERT JUMPDEST POP JUMP JUMPDEST PUSH3 0x3D0 DUP2 PUSH3 0x323 JUMP JUMPDEST DUP2 EQ PUSH3 0x3DC JUMPI PUSH1 0x0 DUP1 REVERT JUMPDEST POP JUMP JUMPDEST PUSH2 0xA6D DUP1 PUSH3 0x3EF PUSH1 0x0 CODECOPY PUSH1 0x0 RETURN INVALID PUSH1 0x80 PUSH1 0x40 MSTORE CALLVALUE DUP1 ISZERO PUSH2 0x10 JUMPI PUSH1 0x0 DUP1 REVERT JUMPDEST POP PUSH1 0x4 CALLDATASIZE LT PUSH2 0x4C JUMPI PUSH1 0x0 CALLDATALOAD PUSH1 0xE0 SHR DUP1 PUSH4 0x1FFC9A7 EQ PUSH2 0x51 JUMPI DUP1 PUSH4 0x451C3D80 EQ PUSH2 0x81 JUMPI DUP1 PUSH4 0x7B04A2D0 EQ PUSH2 0x9F JUMPI DUP1 PUSH4 0x88A7CA5C EQ PUSH2 0xCF JUMPI JUMPDEST PUSH1 0x0 DUP1 REVERT JUMPDEST PUSH2 0x6B PUSH1 0x4 DUP1 CALLDATASIZE SUB DUP2 ADD SWAP1 PUSH2 0x66 SWAP2 SWAP1 PUSH2 0x649 JUMP JUMPDEST PUSH2 0xFF JUMP JUMPDEST PUSH1 0x40 MLOAD PUSH2 0x78 SWAP2 SWAP1 PUSH2 0x70E JUMP JUMPDEST PUSH1 0x40 MLOAD DUP1 SWAP2 SUB SWAP1 RETURN JUMPDEST PUSH2 0x89 PUSH2 0x1E1 JUMP JUMPDEST PUSH1 0x40 MLOAD PUSH2 0x96 SWAP2 SWAP1 PUSH2 0x744 JUMP JUMPDEST PUSH1 0x40 MLOAD DUP1 SWAP2 SUB SWAP1 RETURN JUMPDEST PUSH2 0xB9 PUSH1 0x4 DUP1 CALLDATASIZE SUB DUP2 ADD SWAP1 PUSH2 0xB4 SWAP2 SWAP1 PUSH2 0x5DA JUMP JUMPDEST PUSH2 0x20A JUMP JUMPDEST PUSH1 0x40 MLOAD PUSH2 0xC6 SWAP2 SWAP1 PUSH2 0x729 JUMP JUMPDEST PUSH1 0x40 MLOAD DUP1 SWAP2 SUB SWAP1 RETURN JUMPDEST PUSH2 0xE9 PUSH1 0x4 DUP1 CALLDATASIZE SUB DUP2 ADD SWAP1 PUSH2 0xE4 SWAP2 SWAP1 PUSH2 0x557 JUMP JUMPDEST PUSH2 0x30E JUMP JUMPDEST PUSH1 0x40 MLOAD PUSH2 0xF6 SWAP2 SWAP1 PUSH2 0x729 JUMP JUMPDEST PUSH1 0x40 MLOAD DUP1 SWAP2 SUB SWAP1 RETURN JUMPDEST PUSH1 0x0 PUSH32 0x88A7CA5C00000000000000000000000000000000000000000000000000000000 PUSH28 0xFFFFFFFFFFFFFFFFFFFFFFFFFFFFFFFFFFFFFFFFFFFFFFFFFFFFFFFF NOT AND DUP3 PUSH28 0xFFFFFFFFFFFFFFFFFFFFFFFFFFFFFFFFFFFFFFFFFFFFFFFFFFFFFFFF NOT AND EQ DUP1 PUSH2 0x1CA JUMPI POP PUSH32 0x7B04A2D000000000000000000000000000000000000000000000000000000000 PUSH28 0xFFFFFFFFFFFFFFFFFFFFFFFFFFFFFFFFFFFFFFFFFFFFFFFFFFFFFFFF NOT AND DUP3 PUSH28 0xFFFFFFFFFFFFFFFFFFFFFFFFFFFFFFFFFFFFFFFFFFFFFFFFFFFFFFFF NOT AND EQ JUMPDEST DUP1 PUSH2 0x1DA JUMPI POP PUSH2 0x1D9 DUP3 PUSH2 0x42B JUMP JUMPDEST JUMPDEST SWAP1 POP SWAP2 SWAP1 POP JUMP JUMPDEST PUSH1 0x0 DUP1 PUSH1 0x0 SWAP1 SLOAD SWAP1 PUSH2 0x100 EXP SWAP1 DIV PUSH20 0xFFFFFFFFFFFFFFFFFFFFFFFFFFFFFFFFFFFFFFFF AND SWAP1 POP SWAP1 JUMP JUMPDEST PUSH1 0x0 DUP1 PUSH1 0x0 SWAP1 SLOAD SWAP1 PUSH2 0x100 EXP SWAP1 DIV PUSH20 0xFFFFFFFFFFFFFFFFFFFFFFFFFFFFFFFFFFFFFFFF AND PUSH20 0xFFFFFFFFFFFFFFFFFFFFFFFFFFFFFFFFFFFFFFFF AND PUSH2 0x24C PUSH2 0x495 JUMP JUMPDEST PUSH20 0xFFFFFFFFFFFFFFFFFFFFFFFFFFFFFFFFFFFFFFFF AND EQ PUSH2 0x2A2 JUMPI PUSH1 0x40 MLOAD PUSH32 0x8C379A000000000000000000000000000000000000000000000000000000000 DUP2 MSTORE PUSH1 0x4 ADD PUSH2 0x299 SWAP1 PUSH2 0x75F JUMP JUMPDEST PUSH1 0x40 MLOAD DUP1 SWAP2 SUB SWAP1 REVERT JUMPDEST DUP4 PUSH20 0xFFFFFFFFFFFFFFFFFFFFFFFFFFFFFFFFFFFFFFFF AND PUSH32 0xFC47604465AC19EDEA172256BAB2469184C3A6770701541635CF84241C2F24B4 DUP5 DUP5 PUSH1 0x40 MLOAD PUSH2 0x2EA SWAP3 SWAP2 SWAP1 PUSH2 0x77F JUMP JUMPDEST PUSH1 0x40 MLOAD DUP1 SWAP2 SUB SWAP1 LOG2 PUSH2 0x2FD DUP5 DUP5 DUP5 PUSH2 0x49D JUMP JUMPDEST PUSH4 0x7B04A2D0 PUSH1 0xE0 SHL SWAP1 POP SWAP4 SWAP3 POP POP POP JUMP JUMPDEST PUSH1 0x0 DUP1 PUSH1 0x0 SWAP1 SLOAD SWAP1 PUSH2 0x100 EXP SWAP1 DIV PUSH20 0xFFFFFFFFFFFFFFFFFFFFFFFFFFFFFFFFFFFFFFFF AND PUSH20 0xFFFFFFFFFFFFFFFFFFFFFFFFFFFFFFFFFFFFFFFF AND PUSH2 0x350 PUSH2 0x495 JUMP JUMPDEST PUSH20 0xFFFFFFFFFFFFFFFFFFFFFFFFFFFFFFFFFFFFFFFF AND EQ PUSH2 0x3A6 JUMPI PUSH1 0x40 MLOAD PUSH32 0x8C379A000000000000000000000000000000000000000000000000000000000 DUP2 MSTORE PUSH1 0x4 ADD PUSH2 0x39D SWAP1 PUSH2 0x75F JUMP JUMPDEST PUSH1 0x40 MLOAD DUP1 SWAP2 SUB SWAP1 REVERT JUMPDEST DUP4 PUSH20 0xFFFFFFFFFFFFFFFFFFFFFFFFFFFFFFFFFFFFFFFF AND DUP6 PUSH20 0xFFFFFFFFFFFFFFFFFFFFFFFFFFFFFFFFFFFFFFFF AND PUSH32 0x1DB5E58326B109682DC160B2E51AA7BF7E8D8CCF74BC242A3C5021793789055 DUP6 DUP6 PUSH1 0x40 MLOAD PUSH2 0x405 SWAP3 SWAP2 SWAP1 PUSH2 0x77F JUMP JUMPDEST PUSH1 0x40 MLOAD DUP1 SWAP2 SUB SWAP1 LOG3 PUSH2 0x419 DUP6 DUP6 DUP6 DUP6 PUSH2 0x4A2 JUMP JUMPDEST PUSH4 0x88A7CA5C PUSH1 0xE0 SHL SWAP1 POP SWAP5 SWAP4 POP POP POP POP JUMP JUMPDEST PUSH1 0x0 PUSH32 0x1FFC9A700000000000000000000000000000000000000000000000000000000 PUSH28 0xFFFFFFFFFFFFFFFFFFFFFFFFFFFFFFFFFFFFFFFFFFFFFFFFFFFFFFFF NOT AND DUP3 PUSH28 0xFFFFFFFFFFFFFFFFFFFFFFFFFFFFFFFFFFFFFFFFFFFFFFFFFFFFFFFF NOT AND EQ SWAP1 POP SWAP2 SWAP1 POP JUMP JUMPDEST PUSH1 0x0 CALLER SWAP1 POP SWAP1 JUMP JUMPDEST POP POP POP JUMP JUMPDEST POP POP POP POP JUMP JUMPDEST PUSH1 0x0 PUSH2 0x4BB PUSH2 0x4B6 DUP5 PUSH2 0x7D4 JUMP JUMPDEST PUSH2 0x7AF JUMP JUMPDEST SWAP1 POP DUP3 DUP2 MSTORE PUSH1 0x20 DUP2 ADD DUP5 DUP5 DUP5 ADD GT ISZERO PUSH2 0x4D7 JUMPI PUSH2 0x4D6 PUSH2 0x983 JUMP JUMPDEST JUMPDEST PUSH2 0x4E2 DUP5 DUP3 DUP6 PUSH2 0x8DC JUMP JUMPDEST POP SWAP4 SWAP3 POP POP POP JUMP JUMPDEST PUSH1 0x0 DUP2 CALLDATALOAD SWAP1 POP PUSH2 0x4F9 DUP2 PUSH2 0x9F2 JUMP JUMPDEST SWAP3 SWAP2 POP POP JUMP JUMPDEST PUSH1 0x0 DUP2 CALLDATALOAD SWAP1 POP PUSH2 0x50E DUP2 PUSH2 0xA09 JUMP JUMPDEST SWAP3 SWAP2 POP POP JUMP JUMPDEST PUSH1 0x0 DUP3 PUSH1 0x1F DUP4 ADD SLT PUSH2 0x529 JUMPI PUSH2 0x528 PUSH2 0x97E JUMP JUMPDEST JUMPDEST DUP2 CALLDATALOAD PUSH2 0x539 DUP5 DUP3 PUSH1 0x20 DUP7 ADD PUSH2 0x4A8 JUMP JUMPDEST SWAP2 POP POP SWAP3 SWAP2 POP POP JUMP JUMPDEST PUSH1 0x0 DUP2 CALLDATALOAD SWAP1 POP PUSH2 0x551 DUP2 PUSH2 0xA20 JUMP JUMPDEST SWAP3 SWAP2 POP POP JUMP JUMPDEST PUSH1 0x0 DUP1 PUSH1 0x0 DUP1 PUSH1 0x80 DUP6 DUP8 SUB SLT ISZERO PUSH2 0x571 JUMPI PUSH2 0x570 PUSH2 0x98D JUMP JUMPDEST JUMPDEST PUSH1 0x0 PUSH2 0x57F DUP8 DUP3 DUP9 ADD PUSH2 0x4EA JUMP JUMPDEST SWAP5 POP POP PUSH1 0x20 PUSH2 0x590 DUP8 DUP3 DUP9 ADD PUSH2 0x4EA JUMP JUMPDEST SWAP4 POP POP PUSH1 0x40 PUSH2 0x5A1 DUP8 DUP3 DUP9 ADD PUSH2 0x542 JUMP JUMPDEST SWAP3 POP POP PUSH1 0x60 DUP6 ADD CALLDATALOAD PUSH8 0xFFFFFFFFFFFFFFFF DUP2 GT ISZERO PUSH2 0x5C2 JUMPI PUSH2 0x5C1 PUSH2 0x988 JUMP JUMPDEST JUMPDEST PUSH2 0x5CE DUP8 DUP3 DUP9 ADD PUSH2 0x514 JUMP JUMPDEST SWAP2 POP POP SWAP3 SWAP6 SWAP2 SWAP5 POP SWAP3 POP JUMP JUMPDEST PUSH1 0x0 DUP1 PUSH1 0x0 PUSH1 0x60 DUP5 DUP7 SUB SLT ISZERO PUSH2 0x5F3 JUMPI PUSH2 0x5F2 PUSH2 0x98D JUMP JUMPDEST JUMPDEST PUSH1 0x0 PUSH2 0x601 DUP7 DUP3 DUP8 ADD PUSH2 0x4EA JUMP JUMPDEST SWAP4 POP POP PUSH1 0x20 PUSH2 0x612 DUP7 DUP3 DUP8 ADD PUSH2 0x542 JUMP JUMPDEST SWAP3 POP POP PUSH1 0x40 DUP5 ADD CALLDATALOAD PUSH8 0xFFFFFFFFFFFFFFFF DUP2 GT ISZERO PUSH2 0x633 JUMPI PUSH2 0x632 PUSH2 0x988 JUMP JUMPDEST JUMPDEST PUSH2 0x63F DUP7 DUP3 DUP8 ADD PUSH2 0x514 JUMP JUMPDEST SWAP2 POP POP SWAP3 POP SWAP3 POP SWAP3 JUMP JUMPDEST PUSH1 0x0 PUSH1 0x20 DUP3 DUP5 SUB SLT ISZERO PUSH2 0x65F JUMPI PUSH2 0x65E PUSH2 0x98D JUMP JUMPDEST JUMPDEST PUSH1 0x0 PUSH2 0x66D DUP5 DUP3 DUP6 ADD PUSH2 0x4FF JUMP JUMPDEST SWAP2 POP POP SWAP3 SWAP2 POP POP JUMP JUMPDEST PUSH2 0x67F DUP2 PUSH2 0x844 JUMP JUMPDEST DUP3 MSTORE POP POP JUMP JUMPDEST PUSH2 0x68E DUP2 PUSH2 0x850 JUMP JUMPDEST DUP3 MSTORE POP POP JUMP JUMPDEST PUSH1 0x0 PUSH2 0x69F DUP3 PUSH2 0x805 JUMP JUMPDEST PUSH2 0x6A9 DUP2 DUP6 PUSH2 0x810 JUMP JUMPDEST SWAP4 POP PUSH2 0x6B9 DUP2 DUP6 PUSH1 0x20 DUP7 ADD PUSH2 0x8EB JUMP JUMPDEST PUSH2 0x6C2 DUP2 PUSH2 0x992 JUMP JUMPDEST DUP5 ADD SWAP2 POP POP SWAP3 SWAP2 POP POP JUMP JUMPDEST PUSH2 0x6D6 DUP2 PUSH2 0x8A6 JUMP JUMPDEST DUP3 MSTORE POP POP JUMP JUMPDEST PUSH1 0x0 PUSH2 0x6E9 PUSH1 0x33 DUP4 PUSH2 0x821 JUMP JUMPDEST SWAP2 POP PUSH2 0x6F4 DUP3 PUSH2 0x9A3 JUMP JUMPDEST PUSH1 0x40 DUP3 ADD SWAP1 POP SWAP2 SWAP1 POP JUMP JUMPDEST PUSH2 0x708 DUP2 PUSH2 0x89C JUMP JUMPDEST DUP3 MSTORE POP POP JUMP JUMPDEST PUSH1 0x0 PUSH1 0x20 DUP3 ADD SWAP1 POP PUSH2 0x723 PUSH1 0x0 DUP4 ADD DUP5 PUSH2 0x676 JUMP JUMPDEST SWAP3 SWAP2 POP POP JUMP JUMPDEST PUSH1 0x0 PUSH1 0x20 DUP3 ADD SWAP1 POP PUSH2 0x73E PUSH1 0x0 DUP4 ADD DUP5 PUSH2 0x685 JUMP JUMPDEST SWAP3 SWAP2 POP POP JUMP JUMPDEST PUSH1 0x0 PUSH1 0x20 DUP3 ADD SWAP1 POP PUSH2 0x759 PUSH1 0x0 DUP4 ADD DUP5 PUSH2 0x6CD JUMP JUMPDEST SWAP3 SWAP2 POP POP JUMP JUMPDEST PUSH1 0x0 PUSH1 0x20 DUP3 ADD SWAP1 POP DUP2 DUP2 SUB PUSH1 0x0 DUP4 ADD MSTORE PUSH2 0x778 DUP2 PUSH2 0x6DC JUMP JUMPDEST SWAP1 POP SWAP2 SWAP1 POP JUMP JUMPDEST PUSH1 0x0 PUSH1 0x40 DUP3 ADD SWAP1 POP PUSH2 0x794 PUSH1 0x0 DUP4 ADD DUP6 PUSH2 0x6FF JUMP JUMPDEST DUP2 DUP2 SUB PUSH1 0x20 DUP4 ADD MSTORE PUSH2 0x7A6 DUP2 DUP5 PUSH2 0x694 JUMP JUMPDEST SWAP1 POP SWAP4 SWAP3 POP POP POP JUMP JUMPDEST PUSH1 0x0 PUSH2 0x7B9 PUSH2 0x7CA JUMP JUMPDEST SWAP1 POP PUSH2 0x7C5 DUP3 DUP3 PUSH2 0x91E JUMP JUMPDEST SWAP2 SWAP1 POP JUMP JUMPDEST PUSH1 0x0 PUSH1 0x40 MLOAD SWAP1 POP SWAP1 JUMP JUMPDEST PUSH1 0x0 PUSH8 0xFFFFFFFFFFFFFFFF DUP3 GT ISZERO PUSH2 0x7EF JUMPI PUSH2 0x7EE PUSH2 0x94F JUMP JUMPDEST JUMPDEST PUSH2 0x7F8 DUP3 PUSH2 0x992 JUMP JUMPDEST SWAP1 POP PUSH1 0x20 DUP2 ADD SWAP1 POP SWAP2 SWAP1 POP JUMP JUMPDEST PUSH1 0x0 DUP2 MLOAD SWAP1 POP SWAP2 SWAP1 POP JUMP JUMPDEST PUSH1 0x0 DUP3 DUP3 MSTORE PUSH1 0x20 DUP3 ADD SWAP1 POP SWAP3 SWAP2 POP POP JUMP JUMPDEST PUSH1 0x0 DUP3 DUP3 MSTORE PUSH1 0x20 DUP3 ADD SWAP1 POP SWAP3 SWAP2 POP POP JUMP JUMPDEST PUSH1 0x0 PUSH2 0x83D DUP3 PUSH2 0x87C JUMP JUMPDEST SWAP1 POP SWAP2 SWAP1 POP JUMP JUMPDEST PUSH1 0x0 DUP2 ISZERO ISZERO SWAP1 POP SWAP2 SWAP1 POP JUMP JUMPDEST PUSH1 0x0 PUSH32 0xFFFFFFFF00000000000000000000000000000000000000000000000000000000 DUP3 AND SWAP1 POP SWAP2 SWAP1 POP JUMP JUMPDEST PUSH1 0x0 PUSH20 0xFFFFFFFFFFFFFFFFFFFFFFFFFFFFFFFFFFFFFFFF DUP3 AND SWAP1 POP SWAP2 SWAP1 POP JUMP JUMPDEST PUSH1 0x0 DUP2 SWAP1 POP SWAP2 SWAP1 POP JUMP JUMPDEST PUSH1 0x0 PUSH2 0x8B1 DUP3 PUSH2 0x8B8 JUMP JUMPDEST SWAP1 POP SWAP2 SWAP1 POP JUMP JUMPDEST PUSH1 0x0 PUSH2 0x8C3 DUP3 PUSH2 0x8CA JUMP JUMPDEST SWAP1 POP SWAP2 SWAP1 POP JUMP JUMPDEST PUSH1 0x0 PUSH2 0x8D5 DUP3 PUSH2 0x87C JUMP JUMPDEST SWAP1 POP SWAP2 SWAP1 POP JUMP JUMPDEST DUP3 DUP2 DUP4 CALLDATACOPY PUSH1 0x0 DUP4 DUP4 ADD MSTORE POP POP POP JUMP JUMPDEST PUSH1 0x0 JUMPDEST DUP4 DUP2 LT ISZERO PUSH2 0x909 JUMPI DUP1 DUP3 ADD MLOAD DUP2 DUP5 ADD MSTORE PUSH1 0x20 DUP2 ADD SWAP1 POP PUSH2 0x8EE JUMP JUMPDEST DUP4 DUP2 GT ISZERO PUSH2 0x918 JUMPI PUSH1 0x0 DUP5 DUP5 ADD MSTORE JUMPDEST POP POP POP POP JUMP JUMPDEST PUSH2 0x927 DUP3 PUSH2 0x992 JUMP JUMPDEST DUP2 ADD DUP2 DUP2 LT PUSH8 0xFFFFFFFFFFFFFFFF DUP3 GT OR ISZERO PUSH2 0x946 JUMPI PUSH2 0x945 PUSH2 0x94F JUMP JUMPDEST JUMPDEST DUP1 PUSH1 0x40 MSTORE POP POP POP JUMP JUMPDEST PUSH32 0x4E487B7100000000000000000000000000000000000000000000000000000000 PUSH1 0x0 MSTORE PUSH1 0x41 PUSH1 0x4 MSTORE PUSH1 0x24 PUSH1 0x0 REVERT JUMPDEST PUSH1 0x0 DUP1 REVERT JUMPDEST PUSH1 0x0 DUP1 REVERT JUMPDEST PUSH1 0x0 DUP1 REVERT JUMPDEST PUSH1 0x0 DUP1 REVERT JUMPDEST PUSH1 0x0 PUSH1 0x1F NOT PUSH1 0x1F DUP4 ADD AND SWAP1 POP SWAP2 SWAP1 POP JUMP JUMPDEST PUSH32 0x4552433133363350617961626C653A206163636570746564546F6B656E206973 PUSH1 0x0 DUP3 ADD MSTORE PUSH32 0x206E6F74206D6573736167652073656E64657200000000000000000000000000 PUSH1 0x20 DUP3 ADD MSTORE POP JUMP JUMPDEST PUSH2 0x9FB DUP2 PUSH2 0x832 JUMP JUMPDEST DUP2 EQ PUSH2 0xA06 JUMPI PUSH1 0x0 DUP1 REVERT JUMPDEST POP JUMP JUMPDEST PUSH2 0xA12 DUP2 PUSH2 0x850 JUMP JUMPDEST DUP2 EQ PUSH2 0xA1D JUMPI PUSH1 0x0 DUP1 REVERT JUMPDEST POP JUMP JUMPDEST PUSH2 0xA29 DUP2 PUSH2 0x89C JUMP JUMPDEST DUP2 EQ PUSH2 0xA34 JUMPI PUSH1 0x0 DUP1 REVERT JUMPDEST POP JUMP INVALID LOG2 PUSH5 0x6970667358 0x22 SLT KECCAK256 0x28 0x4E SHR PUSH20 0x140240F580815ADAB8AAC6792FC3A585D19966E8 PUSH2 0xC2AD PUSH2 0x34B8 0xA7 0xCF PUSH5 0x736F6C6343 STOP ADDMOD SMOD STOP CALLER "
		},
		"gasEstimates": {
			"creation": {
				"codeDepositCost": "533800",
				"executionCost": "infinite",
				"totalCost": "infinite"
			},
			"external": {
				"acceptedToken()": "2608",
				"onApprovalReceived(address,uint256,bytes)": "infinite",
				"onTransferReceived(address,address,uint256,bytes)": "infinite",
				"supportsInterface(bytes4)": "751"
			},
			"internal": {
				"_approvalReceived(address,uint256,bytes memory)": "15",
				"_transferReceived(address,address,uint256,bytes memory)": "17"
			}
		},
		"methodIdentifiers": {
			"acceptedToken()": "451c3d80",
			"onApprovalReceived(address,uint256,bytes)": "7b04a2d0",
			"onTransferReceived(address,address,uint256,bytes)": "88a7ca5c",
			"supportsInterface(bytes4)": "01ffc9a7"
		}
	},
	"abi": [
		{
			"inputs": [
				{
					"internalType": "contract IERC1363",
					"name": "acceptedToken_",
					"type": "address"
				}
			],
			"stateMutability": "nonpayable",
			"type": "constructor"
		},
		{
			"anonymous": false,
			"inputs": [
				{
					"indexed": true,
					"internalType": "address",
					"name": "sender",
					"type": "address"
				},
				{
					"indexed": false,
					"internalType": "uint256",
					"name": "amount",
					"type": "uint256"
				},
				{
					"indexed": false,
					"internalType": "bytes",
					"name": "data",
					"type": "bytes"
				}
			],
			"name": "TokensApproved",
			"type": "event"
		},
		{
			"anonymous": false,
			"inputs": [
				{
					"indexed": true,
					"internalType": "address",
					"name": "operator",
					"type": "address"
				},
				{
					"indexed": true,
					"internalType": "address",
					"name": "sender",
					"type": "address"
				},
				{
					"indexed": false,
					"internalType": "uint256",
					"name": "amount",
					"type": "uint256"
				},
				{
					"indexed": false,
					"internalType": "bytes",
					"name": "data",
					"type": "bytes"
				}
			],
			"name": "TokensReceived",
			"type": "event"
		},
		{
			"inputs": [],
			"name": "acceptedToken",
			"outputs": [
				{
					"internalType": "contract IERC1363",
					"name": "",
					"type": "address"
				}
			],
			"stateMutability": "view",
			"type": "function"
		},
		{
			"inputs": [
				{
					"internalType": "address",
					"name": "sender",
					"type": "address"
				},
				{
					"internalType": "uint256",
					"name": "amount",
					"type": "uint256"
				},
				{
					"internalType": "bytes",
					"name": "data",
					"type": "bytes"
				}
			],
			"name": "onApprovalReceived",
			"outputs": [
				{
					"internalType": "bytes4",
					"name": "",
					"type": "bytes4"
				}
			],
			"stateMutability": "nonpayable",
			"type": "function"
		},
		{
			"inputs": [
				{
					"internalType": "address",
					"name": "spender",
					"type": "address"
				},
				{
					"internalType": "address",
					"name": "sender",
					"type": "address"
				},
				{
					"internalType": "uint256",
					"name": "amount",
					"type": "uint256"
				},
				{
					"internalType": "bytes",
					"name": "data",
					"type": "bytes"
				}
			],
			"name": "onTransferReceived",
			"outputs": [
				{
					"internalType": "bytes4",
					"name": "",
					"type": "bytes4"
				}
			],
			"stateMutability": "nonpayable",
			"type": "function"
		},
		{
			"inputs": [
				{
					"internalType": "bytes4",
					"name": "interfaceId",
					"type": "bytes4"
				}
			],
			"name": "supportsInterface",
			"outputs": [
				{
					"internalType": "bool",
					"name": "",
					"type": "bool"
				}
			],
			"stateMutability": "view",
			"type": "function"
		}
	]
}